{
  "contractName": "Voting",
  "abi": [
    {
      "inputs": [
        {
          "internalType": "string",
          "name": "_ballotOfficialName",
          "type": "string"
        }
      ],
      "payable": false,
      "stateMutability": "nonpayable",
      "type": "constructor"
    },
    {
      "constant": true,
      "inputs": [],
      "name": "ballotOfficialAddress",
      "outputs": [
        {
          "internalType": "address",
          "name": "",
          "type": "address"
        }
      ],
      "payable": false,
      "stateMutability": "view",
      "type": "function"
    },
    {
      "constant": true,
      "inputs": [],
      "name": "ballotOfficialName",
      "outputs": [
        {
          "internalType": "string",
          "name": "",
          "type": "string"
        }
      ],
      "payable": false,
      "stateMutability": "view",
      "type": "function"
    },
    {
      "constant": true,
      "inputs": [
        {
          "internalType": "address",
          "name": "",
          "type": "address"
        }
      ],
      "name": "candRegister",
      "outputs": [
        {
          "internalType": "string",
          "name": "name",
          "type": "string"
        },
        {
          "internalType": "address",
          "name": "candAddress",
          "type": "address"
        },
        {
          "internalType": "uint256",
          "name": "votes",
          "type": "uint256"
        }
      ],
      "payable": false,
      "stateMutability": "view",
      "type": "function"
    },
    {
      "constant": true,
      "inputs": [
        {
          "internalType": "uint256",
          "name": "",
          "type": "uint256"
        }
      ],
      "name": "candidateAddress",
      "outputs": [
        {
          "internalType": "address",
          "name": "",
          "type": "address"
        }
      ],
      "payable": false,
      "stateMutability": "view",
      "type": "function"
    },
    {
      "constant": true,
      "inputs": [],
      "name": "state",
      "outputs": [
        {
          "internalType": "enum Voting.State",
          "name": "",
          "type": "uint8"
        }
      ],
      "payable": false,
      "stateMutability": "view",
      "type": "function"
    },
    {
      "constant": true,
      "inputs": [],
      "name": "totalCandidate",
      "outputs": [
        {
          "internalType": "uint256",
          "name": "",
          "type": "uint256"
        }
      ],
      "payable": false,
      "stateMutability": "view",
      "type": "function"
    },
    {
      "constant": true,
      "inputs": [],
      "name": "totalVote",
      "outputs": [
        {
          "internalType": "uint256",
          "name": "",
          "type": "uint256"
        }
      ],
      "payable": false,
      "stateMutability": "view",
      "type": "function"
    },
    {
      "constant": true,
      "inputs": [],
      "name": "totalVoter",
      "outputs": [
        {
          "internalType": "uint256",
          "name": "",
          "type": "uint256"
        }
      ],
      "payable": false,
      "stateMutability": "view",
      "type": "function"
    },
    {
      "constant": true,
      "inputs": [
        {
          "internalType": "address",
          "name": "",
          "type": "address"
        }
      ],
      "name": "voterRegister",
      "outputs": [
        {
          "internalType": "string",
          "name": "voterName",
          "type": "string"
        },
        {
          "internalType": "bool",
          "name": "voted",
          "type": "bool"
        }
      ],
      "payable": false,
      "stateMutability": "view",
      "type": "function"
    },
    {
      "constant": true,
      "inputs": [
        {
          "internalType": "uint256",
          "name": "",
          "type": "uint256"
        }
      ],
      "name": "votes",
      "outputs": [
        {
          "internalType": "address",
          "name": "voterAddress",
          "type": "address"
        },
        {
          "internalType": "address",
          "name": "toAddress",
          "type": "address"
        }
      ],
      "payable": false,
      "stateMutability": "view",
      "type": "function"
    },
    {
      "constant": true,
      "inputs": [
        {
          "internalType": "address",
          "name": "",
          "type": "address"
        }
      ],
      "name": "votesRecieved",
      "outputs": [
        {
          "internalType": "uint256",
          "name": "",
          "type": "uint256"
        }
      ],
      "payable": false,
      "stateMutability": "view",
      "type": "function"
    },
    {
      "constant": true,
      "inputs": [],
      "name": "winner",
      "outputs": [
        {
          "internalType": "address",
          "name": "",
          "type": "address"
        }
      ],
      "payable": false,
      "stateMutability": "view",
      "type": "function"
    },
    {
      "constant": false,
      "inputs": [
        {
          "internalType": "address",
          "name": "_candidate",
          "type": "address"
        },
        {
          "internalType": "string",
          "name": "_name",
          "type": "string"
        }
      ],
      "name": "registerCandidate",
      "outputs": [],
      "payable": false,
      "stateMutability": "nonpayable",
      "type": "function"
    },
    {
      "constant": false,
      "inputs": [
        {
          "internalType": "address",
          "name": "_voterAddress",
          "type": "address"
        },
        {
          "internalType": "string",
          "name": "_voterName",
          "type": "string"
        }
      ],
      "name": "addVoter",
      "outputs": [],
      "payable": false,
      "stateMutability": "nonpayable",
      "type": "function"
    },
    {
      "constant": false,
      "inputs": [],
      "name": "startVote",
      "outputs": [],
      "payable": false,
      "stateMutability": "nonpayable",
      "type": "function"
    },
    {
      "constant": false,
      "inputs": [
        {
          "internalType": "address",
          "name": "_candidate",
          "type": "address"
        }
      ],
      "name": "castVote",
      "outputs": [],
      "payable": false,
      "stateMutability": "nonpayable",
      "type": "function"
    },
    {
      "constant": true,
      "inputs": [
        {
          "internalType": "address",
          "name": "_candidate",
          "type": "address"
        }
      ],
      "name": "validCandidate",
      "outputs": [
        {
          "internalType": "bool",
          "name": "",
          "type": "bool"
        }
      ],
      "payable": false,
      "stateMutability": "view",
      "type": "function"
    },
    {
      "constant": false,
      "inputs": [],
      "name": "endVote",
      "outputs": [],
      "payable": false,
      "stateMutability": "nonpayable",
      "type": "function"
    },
    {
      "constant": false,
      "inputs": [],
      "name": "result",
      "outputs": [],
      "payable": false,
      "stateMutability": "nonpayable",
      "type": "function"
    }
  ],
  "bytecode": "0x60806040526000600155600060025560006003553480156200002057600080fd5b5060405162001a5238038062001a52833981810160405260208110156200004657600080fd5b81019080805160405193929190846401000000008211156200006757600080fd5b838201915060208201858111156200007e57600080fd5b82518660018202830111640100000000821117156200009c57600080fd5b8083526020830192505050908051906020019080838360005b83811015620000d2578082015181840152602081019050620000b5565b50505050905090810190601f168015620001005780820380516001836020036101000a031916815260200191505b5060405250505033600460006101000a81548173ffffffffffffffffffffffffffffffffffffffff021916908373ffffffffffffffffffffffffffffffffffffffff1602179055508060059080519060200190620001609291906200018d565b506000600c60006101000a81548160ff021916908360028111156200018157fe5b0217905550506200023c565b828054600181600116156101000203166002900490600052602060002090601f016020900481019282601f10620001d057805160ff191683800117855562000201565b8280016001018555821562000201579182015b8281111562000200578251825591602001919060010190620001e3565b5b50905062000210919062000214565b5090565b6200023991905b80821115620002355760008160009055506001016200021b565b5090565b90565b611806806200024c6000396000f3fe608060405234801561001057600080fd5b50600436106101215760003560e01c8063af154087116100ad578063d9e95a9811610071578063d9e95a981461063f578063db9b13ed1461071a578063de975d1814610772578063dfbf53ae146107f5578063f1cea4c71461083f57610121565b8063af1540871461036f578063b0d30d2f14610437578063b922394614610512578063c19d93fb1461051c578063d7d1ac8f1461054857610121565b80635df81330116100f45780635df81330146102005780636332abc9146102a157806365372147146102bf57806371851be8146102c9578063909497471461032557610121565b80631812dab4146101265780633a88251a146101445780634c0a6af0146101b257806353358fc4146101bc575b600080fd5b61012e61085d565b6040518082815260200191505060405180910390f35b6101706004803603602081101561015a57600080fd5b8101908080359060200190929190505050610863565b604051808273ffffffffffffffffffffffffffffffffffffffff1673ffffffffffffffffffffffffffffffffffffffff16815260200191505060405180910390f35b6101ba61089f565b005b6101fe600480360360208110156101d257600080fd5b81019080803573ffffffffffffffffffffffffffffffffffffffff169060200190929190505050610953565b005b61022c6004803603602081101561021657600080fd5b8101908080359060200190929190505050610d2a565b604051808373ffffffffffffffffffffffffffffffffffffffff1673ffffffffffffffffffffffffffffffffffffffff1681526020018273ffffffffffffffffffffffffffffffffffffffff1673ffffffffffffffffffffffffffffffffffffffff1681526020019250505060405180910390f35b6102a9610d8e565b6040518082815260200191505060405180910390f35b6102c7610d94565b005b61030b600480360360208110156102df57600080fd5b81019080803573ffffffffffffffffffffffffffffffffffffffff169060200190929190505050610f2b565b604051808215151515815260200191505060405180910390f35b61032d610fcd565b604051808273ffffffffffffffffffffffffffffffffffffffff1673ffffffffffffffffffffffffffffffffffffffff16815260200191505060405180910390f35b6103b16004803603602081101561038557600080fd5b81019080803573ffffffffffffffffffffffffffffffffffffffff169060200190929190505050610ff3565b604051808060200183151515158152602001828103825284818151815260200191508051906020019080838360005b838110156103fb5780820151818401526020810190506103e0565b50505050905090810190601f1680156104285780820380516001836020036101000a031916815260200191505b50935050505060405180910390f35b6105106004803603604081101561044d57600080fd5b81019080803573ffffffffffffffffffffffffffffffffffffffff1690602001909291908035906020019064010000000081111561048a57600080fd5b82018360208201111561049c57600080fd5b803590602001918460018302840111640100000000831117156104be57600080fd5b91908080601f016020809104026020016040519081016040528093929190818152602001838380828437600081840152601f19601f8201169050808301925050505050505091929192905050506110bc565b005b61051a6112c1565b005b610524611375565b6040518082600281111561053457fe5b60ff16815260200191505060405180910390f35b61058a6004803603602081101561055e57600080fd5b81019080803573ffffffffffffffffffffffffffffffffffffffff169060200190929190505050611388565b60405180806020018473ffffffffffffffffffffffffffffffffffffffff1673ffffffffffffffffffffffffffffffffffffffff168152602001838152602001828103825285818151815260200191508051906020019080838360005b838110156106025780820151818401526020810190506105e7565b50505050905090810190601f16801561062f5780820380516001836020036101000a031916815260200191505b5094505050505060405180910390f35b6107186004803603604081101561065557600080fd5b81019080803573ffffffffffffffffffffffffffffffffffffffff1690602001909291908035906020019064010000000081111561069257600080fd5b8201836020820111156106a457600080fd5b803590602001918460018302840111640100000000831117156106c657600080fd5b91908080601f016020809104026020016040519081016040528093929190818152602001838380828437600081840152601f19601f82011690508083019250505050505050919291929050505061146a565b005b61075c6004803603602081101561073057600080fd5b81019080803573ffffffffffffffffffffffffffffffffffffffff1690602001909291905050506115b1565b6040518082815260200191505060405180910390f35b61077a6115c9565b6040518080602001828103825283818151815260200191508051906020019080838360005b838110156107ba57808201518184015260208101905061079f565b50505050905090810190601f1680156107e75780820380516001836020036101000a031916815260200191505b509250505060405180910390f35b6107fd611667565b604051808273ffffffffffffffffffffffffffffffffffffffff1673ffffffffffffffffffffffffffffffffffffffff16815260200191505060405180910390f35b61084761168d565b6040518082815260200191505060405180910390f35b60025481565b6000818154811061087057fe5b906000526020600020016000915054906101000a900473ffffffffffffffffffffffffffffffffffffffff1681565b60008060028111156108ad57fe5b600c60009054906101000a900460ff1660028111156108c857fe5b146108d257600080fd5b600460009054906101000a900473ffffffffffffffffffffffffffffffffffffffff1673ffffffffffffffffffffffffffffffffffffffff163373ffffffffffffffffffffffffffffffffffffffff161461092c57600080fd5b6001600c60006101000a81548160ff0219169083600281111561094b57fe5b021790555050565b61095c81610f2b565b6109ce576040517f08c379a00000000000000000000000000000000000000000000000000000000081526004018080602001828103825260158152602001807f4e6f7420612056616c69642063616e646964617465000000000000000000000081525060200191505060405180910390fd5b6000600960003373ffffffffffffffffffffffffffffffffffffffff1673ffffffffffffffffffffffffffffffffffffffff16815260200190815260200160002060000180546001816001161561010002031660029004905014158015610a825750600960003373ffffffffffffffffffffffffffffffffffffffff1673ffffffffffffffffffffffffffffffffffffffff16815260200190815260200160002060010160009054906101000a900460ff16155b15610d27576001600960003373ffffffffffffffffffffffffffffffffffffffff1673ffffffffffffffffffffffffffffffffffffffff16815260200190815260200160002060010160006101000a81548160ff021916908315150217905550610aea611693565b33816000019073ffffffffffffffffffffffffffffffffffffffff16908173ffffffffffffffffffffffffffffffffffffffff168152505081816020019073ffffffffffffffffffffffffffffffffffffffff16908173ffffffffffffffffffffffffffffffffffffffff16815250508060086000600354815260200190815260200160002060008201518160000160006101000a81548173ffffffffffffffffffffffffffffffffffffffff021916908373ffffffffffffffffffffffffffffffffffffffff16021790555060208201518160010160006101000a81548173ffffffffffffffffffffffffffffffffffffffff021916908373ffffffffffffffffffffffffffffffffffffffff1602179055509050506003600081548092919060010191905055506001600a60008473ffffffffffffffffffffffffffffffffffffffff1673ffffffffffffffffffffffffffffffffffffffff1681526020019081526020016000206002015401600a60008473ffffffffffffffffffffffffffffffffffffffff1673ffffffffffffffffffffffffffffffffffffffff168152602001908152602001600020600201819055506001600b60008473ffffffffffffffffffffffffffffffffffffffff1673ffffffffffffffffffffffffffffffffffffffff1681526020019081526020016000205401600b60008473ffffffffffffffffffffffffffffffffffffffff1673ffffffffffffffffffffffffffffffffffffffff16815260200190815260200160002081905550505b50565b60086020528060005260406000206000915090508060000160009054906101000a900473ffffffffffffffffffffffffffffffffffffffff16908060010160009054906101000a900473ffffffffffffffffffffffffffffffffffffffff16905082565b60015481565b60008090505b600080549050811015610f2857600654600b6000808481548110610dba57fe5b9060005260206000200160009054906101000a900473ffffffffffffffffffffffffffffffffffffffff1673ffffffffffffffffffffffffffffffffffffffff1673ffffffffffffffffffffffffffffffffffffffff168152602001908152602001600020541115610f1b57600b6000808381548110610e3657fe5b9060005260206000200160009054906101000a900473ffffffffffffffffffffffffffffffffffffffff1673ffffffffffffffffffffffffffffffffffffffff1673ffffffffffffffffffffffffffffffffffffffff1681526020019081526020016000205460068190555060008181548110610eaf57fe5b9060005260206000200160009054906101000a900473ffffffffffffffffffffffffffffffffffffffff16600760006101000a81548173ffffffffffffffffffffffffffffffffffffffff021916908373ffffffffffffffffffffffffffffffffffffffff1602179055505b8080600101915050610d9a565b50565b600080600090505b600080549050811015610fc2578273ffffffffffffffffffffffffffffffffffffffff1660008281548110610f6457fe5b9060005260206000200160009054906101000a900473ffffffffffffffffffffffffffffffffffffffff1673ffffffffffffffffffffffffffffffffffffffff161415610fb5576001915050610fc8565b8080600101915050610f33565b50600090505b919050565b600460009054906101000a900473ffffffffffffffffffffffffffffffffffffffff1681565b6009602052806000526040600020600091509050806000018054600181600116156101000203166002900480601f01602080910402602001604051908101604052809291908181526020018280546001816001161561010002031660029004801561109f5780601f106110745761010080835404028352916020019161109f565b820191906000526020600020905b81548152906001019060200180831161108257829003601f168201915b5050505050908060010160009054906101000a900460ff16905082565b600460009054906101000a900473ffffffffffffffffffffffffffffffffffffffff1673ffffffffffffffffffffffffffffffffffffffff163373ffffffffffffffffffffffffffffffffffffffff161461111657600080fd5b600080600281111561112457fe5b600c60009054906101000a900460ff16600281111561113f57fe5b1461114957600080fd5b6111516116d9565b82816000018190525083816020019073ffffffffffffffffffffffffffffffffffffffff16908173ffffffffffffffffffffffffffffffffffffffff168152505080600a60008673ffffffffffffffffffffffffffffffffffffffff1673ffffffffffffffffffffffffffffffffffffffff16815260200190815260200160002060008201518160000190805190602001906111ee929190611710565b5060208201518160010160006101000a81548173ffffffffffffffffffffffffffffffffffffffff021916908373ffffffffffffffffffffffffffffffffffffffff1602179055506040820151816002015590505060008490806001815401808255809150509060018203906000526020600020016000909192909190916101000a81548173ffffffffffffffffffffffffffffffffffffffff021916908373ffffffffffffffffffffffffffffffffffffffff1602179055505060026000815480929190600101919050555050505050565b60018060028111156112cf57fe5b600c60009054906101000a900460ff1660028111156112ea57fe5b146112f457600080fd5b600460009054906101000a900473ffffffffffffffffffffffffffffffffffffffff1673ffffffffffffffffffffffffffffffffffffffff163373ffffffffffffffffffffffffffffffffffffffff161461134e57600080fd5b6002600c60006101000a81548160ff0219169083600281111561136d57fe5b021790555050565b600c60009054906101000a900460ff1681565b600a602052806000526040600020600091509050806000018054600181600116156101000203166002900480601f0160208091040260200160405190810160405280929190818152602001828054600181600116156101000203166002900480156114345780601f1061140957610100808354040283529160200191611434565b820191906000526020600020905b81548152906001019060200180831161141757829003601f168201915b5050505050908060010160009054906101000a900473ffffffffffffffffffffffffffffffffffffffff16908060020154905083565b600080600281111561147857fe5b600c60009054906101000a900460ff16600281111561149357fe5b1461149d57600080fd5b600460009054906101000a900473ffffffffffffffffffffffffffffffffffffffff1673ffffffffffffffffffffffffffffffffffffffff163373ffffffffffffffffffffffffffffffffffffffff16146114f757600080fd5b6114ff611790565b828160000181905250600081602001901515908115158152505080600960008673ffffffffffffffffffffffffffffffffffffffff1673ffffffffffffffffffffffffffffffffffffffff1681526020019081526020016000206000820151816000019080519060200190611575929190611710565b5060208201518160010160006101000a81548160ff02191690831515021790555090505060016000815480929190600101919050555050505050565b600b6020528060005260406000206000915090505481565b60058054600181600116156101000203166002900480601f01602080910402602001604051908101604052809291908181526020018280546001816001161561010002031660029004801561165f5780601f106116345761010080835404028352916020019161165f565b820191906000526020600020905b81548152906001019060200180831161164257829003601f168201915b505050505081565b600760009054906101000a900473ffffffffffffffffffffffffffffffffffffffff1681565b60035481565b6040518060400160405280600073ffffffffffffffffffffffffffffffffffffffff168152602001600073ffffffffffffffffffffffffffffffffffffffff1681525090565b604051806060016040528060608152602001600073ffffffffffffffffffffffffffffffffffffffff168152602001600081525090565b828054600181600116156101000203166002900490600052602060002090601f016020900481019282601f1061175157805160ff191683800117855561177f565b8280016001018555821561177f579182015b8281111561177e578251825591602001919060010190611763565b5b50905061178c91906117ac565b5090565b6040518060400160405280606081526020016000151581525090565b6117ce91905b808211156117ca5760008160009055506001016117b2565b5090565b9056fea265627a7a72315820ff842a1dab9b36056500c569b1c172f9193f8010d3a0093aaae01b3e76f99aac64736f6c63430005100032",
  "source": "\n\npragma solidity ^0.5.3;\n\ncontract Voting {\n    \n    struct candidate{\n        string name;\n        address candAddress;\n        uint votes;\n        \n    }\n\n    struct vote{\n        address voterAddress;\n        address toAddress;\n    }\n    \n    struct voter{\n        string voterName;\n        bool voted;\n    }\n    \n    address[] public candidateAddress; \n   \n    \n    uint public totalVoter = 0;\n    uint public totalCandidate = 0;\n    uint public totalVote = 0;\n    address public ballotOfficialAddress;      \n    string public ballotOfficialName;\n    uint private winnerVotes;\n    address public winner;\n    \n    mapping(uint => vote) public votes;\n    mapping(address => voter) public voterRegister;\n    mapping (address => candidate) public candRegister;\n    mapping(address => uint) public votesRecieved;\n    \n    enum State { Created, Voting, Ended }\n\tState public state;\n\t\n\t//creates a new ballot contract\n\tconstructor( string memory _ballotOfficialName) public {\n        ballotOfficialAddress = msg.sender;\n        ballotOfficialName = _ballotOfficialName;\n       \n        \n        state = State.Created;\n    }\n    \n    \n\tmodifier condition(bool _condition) {\n\t\trequire(_condition);\n\t\t_;\n\t}\n\n\tmodifier onlyOfficial() {\n\t\trequire(msg.sender ==ballotOfficialAddress);\n\t\t_;\n\t}\n\n\tmodifier inState(State _state) {\n\t\trequire(state == _state);\n\t\t_;\n\t}\n\n   \n    \n    //add candidate\n    \n     function registerCandidate(address _candidate, string memory _name) onlyOfficial public inState(State.Created) {\n        \n        candidate memory m;\n        m.name= _name;\n        m.candAddress=_candidate;\n        candRegister[_candidate]=m;\n        candidateAddress.push(_candidate);\n        totalCandidate++;\n        \n    }\n    \n    //add voter\n    function addVoter(address _voterAddress, string memory _voterName)\n        public\n        inState(State.Created)\n        onlyOfficial\n    {\n        voter memory v;\n        v.voterName = _voterName;\n        v.voted = false;\n        voterRegister[_voterAddress] = v;\n        \n        totalVoter++;\n      \n    }\n\n    //declare voting starts now\n    function startVote()\n        public\n        inState(State.Created)\n        onlyOfficial\n    {\n        state = State.Voting;     \n       \n    }\n\n\n    \n    function castVote(address _candidate) public{\n        require(validCandidate(_candidate),\"Not a Valid candidate\");\n        if (bytes(voterRegister[msg.sender].voterName).length != 0   && !voterRegister[msg.sender].voted){\n        voterRegister[msg.sender].voted = true;\n        vote memory v;\n        v.voterAddress = msg.sender;\n        v.toAddress= _candidate;\n       \n        votes[totalVote] = v;\n        totalVote++;    \n       // tempAddress=candRegister[_candidate];\n        candRegister[_candidate].votes= candRegister[_candidate].votes+1;\n        votesRecieved[_candidate]=votesRecieved[_candidate]+1;\n    }\n    }\n    \n    function validCandidate(address _candidate) view public returns(bool){\n        \n        for(uint i=0; i<candidateAddress.length;i++){\n            \n        \n        if(candidateAddress[i]==_candidate){\n            return true;\n      }\n    \n        }\n        return false;\n    }\n    \n    \n    \n    function endVote()  public  inState(State.Voting) onlyOfficial\n    {\n        state = State.Ended;\n \n    }\n    \n     function result() public{\n        \n        for(uint i=0; i<candidateAddress.length; i++){\n            \n            if(votesRecieved[candidateAddress[i]] >winnerVotes){\n                winnerVotes=votesRecieved[candidateAddress[i]];\n                winner=candidateAddress[i];\n            }\n        }\n        \n        \n    }\n}",
  "sourcePath": "F:/pankaj/Voting Project/contracts/Voting.sol",
  "compiler": {
    "name": "solc",
    "version": "0.5.16+commit.9c3226ce.Emscripten.clang"
  },
  "schemaVersion": "3.2.4",
  "updatedAt": "2020-09-26T10:17:38.528Z",
  "networkType": "ethereum",
  "devdoc": {
    "methods": {}
  },
  "userdoc": {
    "methods": {}
  }
}