{
  "contractName": "Voting",
  "abi": [
    {
      "inputs": [
        {
          "internalType": "string",
          "name": "_ballotOfficialName",
          "type": "string"
        }
      ],
      "payable": false,
      "stateMutability": "nonpayable",
      "type": "constructor"
    },
    {
      "constant": true,
      "inputs": [],
      "name": "ballotOfficialAddress",
      "outputs": [
        {
          "internalType": "address",
          "name": "",
          "type": "address"
        }
      ],
      "payable": false,
      "stateMutability": "view",
      "type": "function"
    },
    {
      "constant": true,
      "inputs": [],
      "name": "ballotOfficialName",
      "outputs": [
        {
          "internalType": "string",
          "name": "",
          "type": "string"
        }
      ],
      "payable": false,
      "stateMutability": "view",
      "type": "function"
    },
    {
      "constant": true,
      "inputs": [
        {
          "internalType": "address",
          "name": "",
          "type": "address"
        }
      ],
      "name": "candRegister",
      "outputs": [
        {
          "internalType": "string",
          "name": "name",
          "type": "string"
        },
        {
          "internalType": "address",
          "name": "candAddress",
          "type": "address"
        },
        {
          "internalType": "uint256",
          "name": "votes",
          "type": "uint256"
        }
      ],
      "payable": false,
      "stateMutability": "view",
      "type": "function"
    },
    {
      "constant": true,
      "inputs": [],
      "name": "state",
      "outputs": [
        {
          "internalType": "enum Voting.State",
          "name": "",
          "type": "uint8"
        }
      ],
      "payable": false,
      "stateMutability": "view",
      "type": "function"
    },
    {
      "constant": true,
      "inputs": [],
      "name": "totalCandidate",
      "outputs": [
        {
          "internalType": "uint256",
          "name": "",
          "type": "uint256"
        }
      ],
      "payable": false,
      "stateMutability": "view",
      "type": "function"
    },
    {
      "constant": true,
      "inputs": [],
      "name": "totalVote",
      "outputs": [
        {
          "internalType": "uint256",
          "name": "",
          "type": "uint256"
        }
      ],
      "payable": false,
      "stateMutability": "view",
      "type": "function"
    },
    {
      "constant": true,
      "inputs": [],
      "name": "totalVoter",
      "outputs": [
        {
          "internalType": "uint256",
          "name": "",
          "type": "uint256"
        }
      ],
      "payable": false,
      "stateMutability": "view",
      "type": "function"
    },
    {
      "constant": true,
      "inputs": [
        {
          "internalType": "address",
          "name": "",
          "type": "address"
        }
      ],
      "name": "voterRegister",
      "outputs": [
        {
          "internalType": "string",
          "name": "voterName",
          "type": "string"
        },
        {
          "internalType": "bool",
          "name": "voted",
          "type": "bool"
        }
      ],
      "payable": false,
      "stateMutability": "view",
      "type": "function"
    },
    {
      "constant": true,
      "inputs": [
        {
          "internalType": "uint256",
          "name": "",
          "type": "uint256"
        }
      ],
      "name": "votes",
      "outputs": [
        {
          "internalType": "address",
          "name": "voterAddress",
          "type": "address"
        },
        {
          "internalType": "address",
          "name": "toAddress",
          "type": "address"
        }
      ],
      "payable": false,
      "stateMutability": "view",
      "type": "function"
    },
    {
      "constant": true,
      "inputs": [
        {
          "internalType": "address",
          "name": "",
          "type": "address"
        }
      ],
      "name": "votesRecieved",
      "outputs": [
        {
          "internalType": "uint256",
          "name": "",
          "type": "uint256"
        }
      ],
      "payable": false,
      "stateMutability": "view",
      "type": "function"
    },
    {
      "constant": true,
      "inputs": [],
      "name": "winner",
      "outputs": [
        {
          "internalType": "address",
          "name": "",
          "type": "address"
        }
      ],
      "payable": false,
      "stateMutability": "view",
      "type": "function"
    },
    {
      "constant": false,
      "inputs": [
        {
          "internalType": "address",
          "name": "_candidate",
          "type": "address"
        },
        {
          "internalType": "string",
          "name": "_name",
          "type": "string"
        }
      ],
      "name": "registerCandidate",
      "outputs": [],
      "payable": false,
      "stateMutability": "nonpayable",
      "type": "function"
    },
    {
      "constant": false,
      "inputs": [
        {
          "internalType": "address",
          "name": "_voterAddress",
          "type": "address"
        },
        {
          "internalType": "string",
          "name": "_voterName",
          "type": "string"
        }
      ],
      "name": "addVoter",
      "outputs": [],
      "payable": false,
      "stateMutability": "nonpayable",
      "type": "function"
    },
    {
      "constant": false,
      "inputs": [],
      "name": "startVote",
      "outputs": [],
      "payable": false,
      "stateMutability": "nonpayable",
      "type": "function"
    },
    {
      "constant": false,
      "inputs": [
        {
          "internalType": "address",
          "name": "_candidate",
          "type": "address"
        }
      ],
      "name": "castVote",
      "outputs": [],
      "payable": false,
      "stateMutability": "nonpayable",
      "type": "function"
    },
    {
      "constant": true,
      "inputs": [
        {
          "internalType": "address",
          "name": "_candidate",
          "type": "address"
        }
      ],
      "name": "validCandidate",
      "outputs": [
        {
          "internalType": "bool",
          "name": "",
          "type": "bool"
        }
      ],
      "payable": false,
      "stateMutability": "view",
      "type": "function"
    },
    {
      "constant": false,
      "inputs": [],
      "name": "endVote",
      "outputs": [],
      "payable": false,
      "stateMutability": "nonpayable",
      "type": "function"
    },
    {
      "constant": false,
      "inputs": [],
      "name": "result",
      "outputs": [],
      "payable": false,
      "stateMutability": "nonpayable",
      "type": "function"
    }
  ],
  "bytecode": "0x60806040526000600155600060025560006003553480156200002057600080fd5b506040516200199d3803806200199d833981810160405260208110156200004657600080fd5b81019080805160405193929190846401000000008211156200006757600080fd5b838201915060208201858111156200007e57600080fd5b82518660018202830111640100000000821117156200009c57600080fd5b8083526020830192505050908051906020019080838360005b83811015620000d2578082015181840152602081019050620000b5565b50505050905090810190601f168015620001005780820380516001836020036101000a031916815260200191505b5060405250505033600460006101000a81548173ffffffffffffffffffffffffffffffffffffffff021916908373ffffffffffffffffffffffffffffffffffffffff1602179055508060059080519060200190620001609291906200018d565b506000600c60006101000a81548160ff021916908360028111156200018157fe5b0217905550506200023c565b828054600181600116156101000203166002900490600052602060002090601f016020900481019282601f10620001d057805160ff191683800117855562000201565b8280016001018555821562000201579182015b8281111562000200578251825591602001919060010190620001e3565b5b50905062000210919062000214565b5090565b6200023991905b80821115620002355760008160009055506001016200021b565b5090565b90565b611751806200024c6000396000f3fe608060405234801561001057600080fd5b50600436106101165760003560e01c8063b0d30d2f116100a2578063d9e95a9811610071578063d9e95a98146105c6578063db9b13ed146106a1578063de975d18146106f9578063dfbf53ae1461077c578063f1cea4c7146107c657610116565b8063b0d30d2f146103be578063b922394614610499578063c19d93fb146104a3578063d7d1ac8f146104cf57610116565b80636332abc9116100e95780636332abc914610228578063653721471461024657806371851be81461025057806390949747146102ac578063af154087146102f657610116565b80631812dab41461011b5780634c0a6af01461013957806353358fc4146101435780635df8133014610187575b600080fd5b6101236107e4565b6040518082815260200191505060405180910390f35b6101416107ea565b005b6101856004803603602081101561015957600080fd5b81019080803573ffffffffffffffffffffffffffffffffffffffff16906020019092919050505061089e565b005b6101b36004803603602081101561019d57600080fd5b8101908080359060200190929190505050610c75565b604051808373ffffffffffffffffffffffffffffffffffffffff1673ffffffffffffffffffffffffffffffffffffffff1681526020018273ffffffffffffffffffffffffffffffffffffffff1673ffffffffffffffffffffffffffffffffffffffff1681526020019250505060405180910390f35b610230610cd9565b6040518082815260200191505060405180910390f35b61024e610cdf565b005b6102926004803603602081101561026657600080fd5b81019080803573ffffffffffffffffffffffffffffffffffffffff169060200190929190505050610e76565b604051808215151515815260200191505060405180910390f35b6102b4610f18565b604051808273ffffffffffffffffffffffffffffffffffffffff1673ffffffffffffffffffffffffffffffffffffffff16815260200191505060405180910390f35b6103386004803603602081101561030c57600080fd5b81019080803573ffffffffffffffffffffffffffffffffffffffff169060200190929190505050610f3e565b604051808060200183151515158152602001828103825284818151815260200191508051906020019080838360005b83811015610382578082015181840152602081019050610367565b50505050905090810190601f1680156103af5780820380516001836020036101000a031916815260200191505b50935050505060405180910390f35b610497600480360360408110156103d457600080fd5b81019080803573ffffffffffffffffffffffffffffffffffffffff1690602001909291908035906020019064010000000081111561041157600080fd5b82018360208201111561042357600080fd5b8035906020019184600183028401116401000000008311171561044557600080fd5b91908080601f016020809104026020016040519081016040528093929190818152602001838380828437600081840152601f19601f820116905080830192505050505050509192919290505050611007565b005b6104a161120c565b005b6104ab6112c0565b604051808260028111156104bb57fe5b60ff16815260200191505060405180910390f35b610511600480360360208110156104e557600080fd5b81019080803573ffffffffffffffffffffffffffffffffffffffff1690602001909291905050506112d3565b60405180806020018473ffffffffffffffffffffffffffffffffffffffff1673ffffffffffffffffffffffffffffffffffffffff168152602001838152602001828103825285818151815260200191508051906020019080838360005b8381101561058957808201518184015260208101905061056e565b50505050905090810190601f1680156105b65780820380516001836020036101000a031916815260200191505b5094505050505060405180910390f35b61069f600480360360408110156105dc57600080fd5b81019080803573ffffffffffffffffffffffffffffffffffffffff1690602001909291908035906020019064010000000081111561061957600080fd5b82018360208201111561062b57600080fd5b8035906020019184600183028401116401000000008311171561064d57600080fd5b91908080601f016020809104026020016040519081016040528093929190818152602001838380828437600081840152601f19601f8201169050808301925050505050505091929192905050506113b5565b005b6106e3600480360360208110156106b757600080fd5b81019080803573ffffffffffffffffffffffffffffffffffffffff1690602001909291905050506114fc565b6040518082815260200191505060405180910390f35b610701611514565b6040518080602001828103825283818151815260200191508051906020019080838360005b83811015610741578082015181840152602081019050610726565b50505050905090810190601f16801561076e5780820380516001836020036101000a031916815260200191505b509250505060405180910390f35b6107846115b2565b604051808273ffffffffffffffffffffffffffffffffffffffff1673ffffffffffffffffffffffffffffffffffffffff16815260200191505060405180910390f35b6107ce6115d8565b6040518082815260200191505060405180910390f35b60025481565b60008060028111156107f857fe5b600c60009054906101000a900460ff16600281111561081357fe5b1461081d57600080fd5b600460009054906101000a900473ffffffffffffffffffffffffffffffffffffffff1673ffffffffffffffffffffffffffffffffffffffff163373ffffffffffffffffffffffffffffffffffffffff161461087757600080fd5b6001600c60006101000a81548160ff0219169083600281111561089657fe5b021790555050565b6108a781610e76565b610919576040517f08c379a00000000000000000000000000000000000000000000000000000000081526004018080602001828103825260158152602001807f4e6f7420612056616c69642063616e646964617465000000000000000000000081525060200191505060405180910390fd5b6000600960003373ffffffffffffffffffffffffffffffffffffffff1673ffffffffffffffffffffffffffffffffffffffff168152602001908152602001600020600001805460018160011615610100020316600290049050141580156109cd5750600960003373ffffffffffffffffffffffffffffffffffffffff1673ffffffffffffffffffffffffffffffffffffffff16815260200190815260200160002060010160009054906101000a900460ff16155b15610c72576001600960003373ffffffffffffffffffffffffffffffffffffffff1673ffffffffffffffffffffffffffffffffffffffff16815260200190815260200160002060010160006101000a81548160ff021916908315150217905550610a356115de565b33816000019073ffffffffffffffffffffffffffffffffffffffff16908173ffffffffffffffffffffffffffffffffffffffff168152505081816020019073ffffffffffffffffffffffffffffffffffffffff16908173ffffffffffffffffffffffffffffffffffffffff16815250508060086000600354815260200190815260200160002060008201518160000160006101000a81548173ffffffffffffffffffffffffffffffffffffffff021916908373ffffffffffffffffffffffffffffffffffffffff16021790555060208201518160010160006101000a81548173ffffffffffffffffffffffffffffffffffffffff021916908373ffffffffffffffffffffffffffffffffffffffff1602179055509050506003600081548092919060010191905055506001600a60008473ffffffffffffffffffffffffffffffffffffffff1673ffffffffffffffffffffffffffffffffffffffff1681526020019081526020016000206002015401600a60008473ffffffffffffffffffffffffffffffffffffffff1673ffffffffffffffffffffffffffffffffffffffff168152602001908152602001600020600201819055506001600b60008473ffffffffffffffffffffffffffffffffffffffff1673ffffffffffffffffffffffffffffffffffffffff1681526020019081526020016000205401600b60008473ffffffffffffffffffffffffffffffffffffffff1673ffffffffffffffffffffffffffffffffffffffff16815260200190815260200160002081905550505b50565b60086020528060005260406000206000915090508060000160009054906101000a900473ffffffffffffffffffffffffffffffffffffffff16908060010160009054906101000a900473ffffffffffffffffffffffffffffffffffffffff16905082565b60015481565b60008090505b600080549050811015610e7357600654600b6000808481548110610d0557fe5b9060005260206000200160009054906101000a900473ffffffffffffffffffffffffffffffffffffffff1673ffffffffffffffffffffffffffffffffffffffff1673ffffffffffffffffffffffffffffffffffffffff168152602001908152602001600020541115610e6657600b6000808381548110610d8157fe5b9060005260206000200160009054906101000a900473ffffffffffffffffffffffffffffffffffffffff1673ffffffffffffffffffffffffffffffffffffffff1673ffffffffffffffffffffffffffffffffffffffff1681526020019081526020016000205460068190555060008181548110610dfa57fe5b9060005260206000200160009054906101000a900473ffffffffffffffffffffffffffffffffffffffff16600760006101000a81548173ffffffffffffffffffffffffffffffffffffffff021916908373ffffffffffffffffffffffffffffffffffffffff1602179055505b8080600101915050610ce5565b50565b600080600090505b600080549050811015610f0d578273ffffffffffffffffffffffffffffffffffffffff1660008281548110610eaf57fe5b9060005260206000200160009054906101000a900473ffffffffffffffffffffffffffffffffffffffff1673ffffffffffffffffffffffffffffffffffffffff161415610f00576001915050610f13565b8080600101915050610e7e565b50600090505b919050565b600460009054906101000a900473ffffffffffffffffffffffffffffffffffffffff1681565b6009602052806000526040600020600091509050806000018054600181600116156101000203166002900480601f016020809104026020016040519081016040528092919081815260200182805460018160011615610100020316600290048015610fea5780601f10610fbf57610100808354040283529160200191610fea565b820191906000526020600020905b815481529060010190602001808311610fcd57829003601f168201915b5050505050908060010160009054906101000a900460ff16905082565b600460009054906101000a900473ffffffffffffffffffffffffffffffffffffffff1673ffffffffffffffffffffffffffffffffffffffff163373ffffffffffffffffffffffffffffffffffffffff161461106157600080fd5b600080600281111561106f57fe5b600c60009054906101000a900460ff16600281111561108a57fe5b1461109457600080fd5b61109c611624565b82816000018190525083816020019073ffffffffffffffffffffffffffffffffffffffff16908173ffffffffffffffffffffffffffffffffffffffff168152505080600a60008673ffffffffffffffffffffffffffffffffffffffff1673ffffffffffffffffffffffffffffffffffffffff168152602001908152602001600020600082015181600001908051906020019061113992919061165b565b5060208201518160010160006101000a81548173ffffffffffffffffffffffffffffffffffffffff021916908373ffffffffffffffffffffffffffffffffffffffff1602179055506040820151816002015590505060008490806001815401808255809150509060018203906000526020600020016000909192909190916101000a81548173ffffffffffffffffffffffffffffffffffffffff021916908373ffffffffffffffffffffffffffffffffffffffff1602179055505060026000815480929190600101919050555050505050565b600180600281111561121a57fe5b600c60009054906101000a900460ff16600281111561123557fe5b1461123f57600080fd5b600460009054906101000a900473ffffffffffffffffffffffffffffffffffffffff1673ffffffffffffffffffffffffffffffffffffffff163373ffffffffffffffffffffffffffffffffffffffff161461129957600080fd5b6002600c60006101000a81548160ff021916908360028111156112b857fe5b021790555050565b600c60009054906101000a900460ff1681565b600a602052806000526040600020600091509050806000018054600181600116156101000203166002900480601f01602080910402602001604051908101604052809291908181526020018280546001816001161561010002031660029004801561137f5780601f106113545761010080835404028352916020019161137f565b820191906000526020600020905b81548152906001019060200180831161136257829003601f168201915b5050505050908060010160009054906101000a900473ffffffffffffffffffffffffffffffffffffffff16908060020154905083565b60008060028111156113c357fe5b600c60009054906101000a900460ff1660028111156113de57fe5b146113e857600080fd5b600460009054906101000a900473ffffffffffffffffffffffffffffffffffffffff1673ffffffffffffffffffffffffffffffffffffffff163373ffffffffffffffffffffffffffffffffffffffff161461144257600080fd5b61144a6116db565b828160000181905250600081602001901515908115158152505080600960008673ffffffffffffffffffffffffffffffffffffffff1673ffffffffffffffffffffffffffffffffffffffff16815260200190815260200160002060008201518160000190805190602001906114c092919061165b565b5060208201518160010160006101000a81548160ff02191690831515021790555090505060016000815480929190600101919050555050505050565b600b6020528060005260406000206000915090505481565b60058054600181600116156101000203166002900480601f0160208091040260200160405190810160405280929190818152602001828054600181600116156101000203166002900480156115aa5780601f1061157f576101008083540402835291602001916115aa565b820191906000526020600020905b81548152906001019060200180831161158d57829003601f168201915b505050505081565b600760009054906101000a900473ffffffffffffffffffffffffffffffffffffffff1681565b60035481565b6040518060400160405280600073ffffffffffffffffffffffffffffffffffffffff168152602001600073ffffffffffffffffffffffffffffffffffffffff1681525090565b604051806060016040528060608152602001600073ffffffffffffffffffffffffffffffffffffffff168152602001600081525090565b828054600181600116156101000203166002900490600052602060002090601f016020900481019282601f1061169c57805160ff19168380011785556116ca565b828001600101855582156116ca579182015b828111156116c95782518255916020019190600101906116ae565b5b5090506116d791906116f7565b5090565b6040518060400160405280606081526020016000151581525090565b61171991905b808211156117155760008160009055506001016116fd565b5090565b9056fea265627a7a72315820d4d962c0466ddc2c7c3411b193e762d37acc95240ca102e2436124b60a31b7a564736f6c63430005100032",
  "source": "\n\npragma solidity ^0.5.3;\n\ncontract Voting {\n    \n    struct candidate{\n        string name;\n        address candAddress;\n        uint votes;\n        \n    }\n\n    struct vote{\n        address voterAddress;\n        address toAddress;\n    }\n    \n    struct voter{\n        string voterName;\n        bool voted;\n    }\n    \n    address[] private candidateAddress; \n   \n    \n    uint public totalVoter = 0;\n    uint public totalCandidate = 0;\n    uint public totalVote = 0;\n    address public ballotOfficialAddress;      \n    string public ballotOfficialName;\n    uint private winnerVotes;\n    address public winner;\n    \n    mapping(uint => vote) public votes;\n    mapping(address => voter) public voterRegister;\n    mapping (address => candidate) public candRegister;\n    mapping(address => uint) public votesRecieved;\n    \n    enum State { Created, Voting, Ended }\n\tState public state;\n\t\n\t//creates a new ballot contract\n\tconstructor( string memory _ballotOfficialName) public {\n        ballotOfficialAddress = msg.sender;\n        ballotOfficialName = _ballotOfficialName;\n       \n        \n        state = State.Created;\n    }\n    \n    \n\tmodifier condition(bool _condition) {\n\t\trequire(_condition);\n\t\t_;\n\t}\n\n\tmodifier onlyOfficial() {\n\t\trequire(msg.sender ==ballotOfficialAddress);\n\t\t_;\n\t}\n\n\tmodifier inState(State _state) {\n\t\trequire(state == _state);\n\t\t_;\n\t}\n\n   \n    \n    //add candidate\n    \n     function registerCandidate(address _candidate, string memory _name) onlyOfficial public inState(State.Created) {\n        \n        candidate memory m;\n        m.name= _name;\n        m.candAddress=_candidate;\n        candRegister[_candidate]=m;\n        candidateAddress.push(_candidate);\n        totalCandidate++;\n        \n    }\n    \n    //add voter\n    function addVoter(address _voterAddress, string memory _voterName)\n        public\n        inState(State.Created)\n        onlyOfficial\n    {\n        voter memory v;\n        v.voterName = _voterName;\n        v.voted = false;\n        voterRegister[_voterAddress] = v;\n        \n        totalVoter++;\n      \n    }\n\n    //declare voting starts now\n    function startVote()\n        public\n        inState(State.Created)\n        onlyOfficial\n    {\n        state = State.Voting;     \n       \n    }\n\n\n    \n    function castVote(address _candidate) public{\n        require(validCandidate(_candidate),\"Not a Valid candidate\");\n        if (bytes(voterRegister[msg.sender].voterName).length != 0   && !voterRegister[msg.sender].voted){\n        voterRegister[msg.sender].voted = true;\n        vote memory v;\n        v.voterAddress = msg.sender;\n        v.toAddress= _candidate;\n       \n        votes[totalVote] = v;\n        totalVote++;    \n       // tempAddress=candRegister[_candidate];\n        candRegister[_candidate].votes= candRegister[_candidate].votes+1;\n        votesRecieved[_candidate]=votesRecieved[_candidate]+1;\n    }\n    }\n    \n    function validCandidate(address _candidate) view public returns(bool){\n        \n        for(uint i=0; i<candidateAddress.length;i++){\n            \n        \n        if(candidateAddress[i]==_candidate){\n            return true;\n      }\n    \n        }\n        return false;\n    }\n    \n    \n    \n    function endVote()  public  inState(State.Voting) onlyOfficial\n    {\n        state = State.Ended;\n \n    }\n    \n     function result() public{\n        \n        for(uint i=0; i<candidateAddress.length; i++){\n            \n            if(votesRecieved[candidateAddress[i]] >winnerVotes){\n                winnerVotes=votesRecieved[candidateAddress[i]];\n                winner=candidateAddress[i];\n            }\n        }\n        \n        \n    }\n}",
  "sourcePath": "F:/pankaj/Voting Project/contracts/Voting.sol",
  "compiler": {
    "name": "solc",
    "version": "0.5.16+commit.9c3226ce.Emscripten.clang"
  },
  "schemaVersion": "3.2.4",
  "updatedAt": "2020-09-24T03:39:43.575Z",
  "networkType": "ethereum",
  "devdoc": {
    "methods": {}
  },
  "userdoc": {
    "methods": {}
  }
}